{
  "contractName": "Eleicao",
  "abi": [
    {
      "constant": true,
      "inputs": [
        {
          "name": "",
          "type": "address"
        }
      ],
      "name": "eleitores",
      "outputs": [
        {
          "name": "",
          "type": "bool"
        }
      ],
      "payable": false,
      "stateMutability": "view",
      "type": "function"
    },
    {
      "constant": true,
      "inputs": [
        {
          "name": "",
          "type": "uint256"
        }
      ],
      "name": "candidatos",
      "outputs": [
        {
          "name": "id",
          "type": "uint256"
        },
        {
          "name": "codigo",
          "type": "uint256"
        },
        {
          "name": "nome",
          "type": "string"
        },
        {
          "name": "contadorVoto",
          "type": "uint256"
        }
      ],
      "payable": false,
      "stateMutability": "view",
      "type": "function"
    },
    {
      "constant": true,
      "inputs": [],
      "name": "contCandidatos",
      "outputs": [
        {
          "name": "",
          "type": "uint256"
        }
      ],
      "payable": false,
      "stateMutability": "view",
      "type": "function"
    },
    {
      "inputs": [],
      "payable": false,
      "stateMutability": "nonpayable",
      "type": "constructor"
    },
    {
      "anonymous": false,
      "inputs": [
        {
          "indexed": false,
          "name": "_candidato",
          "type": "uint256"
        }
      ],
      "name": "eventoVoto",
      "type": "event"
    },
    {
      "constant": false,
      "inputs": [
        {
          "name": "_candidato",
          "type": "uint256"
        }
      ],
      "name": "votar",
      "outputs": [],
      "payable": false,
      "stateMutability": "nonpayable",
      "type": "function"
    }
  ],
  "bytecode": "0x608060405234801561001057600080fd5b506100606040805190810160405280600b81526020017f43616e64696461746f203100000000000000000000000000000000000000000081525060146101a1640100000000026401000000009004565b6100af6040805190810160405280600b81526020017f43616e64696461746f203200000000000000000000000000000000000000000081525060156101a1640100000000026401000000009004565b6100fe6040805190810160405280600b81526020017f43616e64696461746f203300000000000000000000000000000000000000000081525060166101a1640100000000026401000000009004565b61014d6040805190810160405280600b81526020017f43616e64696461746f203400000000000000000000000000000000000000000081525060176101a1640100000000026401000000009004565b61019c6040805190810160405280600b81526020017f43616e64696461746f203500000000000000000000000000000000000000000081525060186101a1640100000000026401000000009004565b6102d4565b600260008154809291906001019190505550608060405190810160405280600254815260200182815260200183815260200160008152506001600060025481526020019081526020016000206000820151816000015560208201518160010155604082015181600201908051906020019061021d92919061022f565b50606082015181600301559050505050565b828054600181600116156101000203166002900490600052602060002090601f016020900481019282601f1061027057805160ff191683800117855561029e565b8280016001018555821561029e579182015b8281111561029d578251825591602001919060010190610282565b5b5090506102ab91906102af565b5090565b6102d191905b808211156102cd5760008160009055506001016102b5565b5090565b90565b61041b806102e36000396000f300608060405260043610610062576000357c0100000000000000000000000000000000000000000000000000000000900463ffffffff1680632160683114610067578063783b34fa146100945780638f023f85146100ef57806391f3b197146101aa575b600080fd5b34801561007357600080fd5b50610092600480360381019080803590602001909291905050506101d5565b005b3480156100a057600080fd5b506100d5600480360381019080803573ffffffffffffffffffffffffffffffffffffffff169060200190929190505050610301565b604051808215151515815260200191505060405180910390f35b3480156100fb57600080fd5b5061011a60048036038101908080359060200190929190505050610321565b6040518085815260200184815260200180602001838152602001828103825284818151815260200191508051906020019080838360005b8381101561016c578082015181840152602081019050610151565b50505050905090810190601f1680156101995780820380516001836020036101000a031916815260200191505b509550505050505060405180910390f35b3480156101b657600080fd5b506101bf6103e9565b6040518082815260200191505060405180910390f35b6000803373ffffffffffffffffffffffffffffffffffffffff1673ffffffffffffffffffffffffffffffffffffffff16815260200190815260200160002060009054906101000a900460ff1615151561022d57600080fd5b60008111801561023f57506002548111155b151561024a57600080fd5b60016000803373ffffffffffffffffffffffffffffffffffffffff1673ffffffffffffffffffffffffffffffffffffffff16815260200190815260200160002060006101000a81548160ff02191690831515021790555060016000828152602001908152602001600020600301600081548092919060010191905055507fcc47d2f8df99b65fc3475a01172c4c029f71cffd19c01c9098ad105bd64eec39816040518082815260200191505060405180910390a150565b60006020528060005260406000206000915054906101000a900460ff1681565b6001602052806000526040600020600091509050806000015490806001015490806002018054600181600116156101000203166002900480601f0160208091040260200160405190810160405280929190818152602001828054600181600116156101000203166002900480156103d95780601f106103ae576101008083540402835291602001916103d9565b820191906000526020600020905b8154815290600101906020018083116103bc57829003601f168201915b5050505050908060030154905084565b600254815600a165627a7a7230582092dc4ec977938ba4d29ec731683e5a953702473d4b88bb0577364ba968637a330029",
  "source": "/*\r\n    Deve sempre declarar a versão do compilador em que o contrato foi desenvolvido, afim de\r\n    garantir a funcionalidade correta do contrato sem quebra do codigo\r\n    motivados por novas versões .\r\n*/\r\npragma solidity ^0.4.2;\r\n/*\r\n    Declaração do contrato, pode ser assimilado a uma classe\r\n    Aqui também será declarado herança de outro contrato caso necessario,\r\n    esse contrato pode ser tanto interno quanto externo.\r\n */\r\ncontract Eleicao{\r\n\r\n    /*\r\n        Modelar o candidato\r\n        Solidity permite criar estrutura com conjunto de variaveis de estado conforme a\r\n        necessidade do projeto. Variaveis de estado são gravadas permanentemente no blockchain.\r\n        Essa estrutura dinamica ficara salva no blockchain, bem parecido com\r\n        uma tabela de banco sql.\r\n    */\r\n    struct Candidato {\r\n        /*\r\n          Variaveis do tipo uint permite apenas numeros inteiros sem sinal de\r\n          256 bits, isso é numeros não negativos\r\n        */\r\n        uint id;\r\n        uint codigo;\r\n        string nome;\r\n        uint contadorVoto;\r\n    }\r\n    /*\r\n      Mapeamento para controlar endereços que já votarão\r\n    */\r\n    mapping (address => bool) public eleitores;\r\n\r\n    /*\r\n        Mapeamento interage diretamente com a camada de dados do blockchain\r\n        e é o que vai possibilitar a busca de candidatos no blockchain\r\n        buscando o candidato pelo um valor uint que será seu ID e trazendo\r\n        seus dados utilizando a estrutura Candidato.\r\n    */\r\n    mapping (uint => Candidato) public candidatos;\r\n\r\n    /*\r\n        Atributo publico global que contabiliza a quantidade de candidatos, e\r\n        que também denomina o id de cada candidato, futuramente será alterado\r\n        para o id ser o numero do registro de voto.\r\n    */\r\n    uint public contCandidatos;\r\n    /*\r\n      Event são gatilhos que são executados quando uma função é executada\r\n      dentro do contrato\r\n    */\r\n    event eventoVoto(uint _candidato);\r\n\r\n    /*\r\n        Função para adicionar um candidato\r\n     */\r\n    function addCandidato(string _nome, uint _codigo) private {\r\n        contCandidatos ++;\r\n        candidatos[contCandidatos] = Candidato(contCandidatos, _codigo, _nome, 0);\r\n    }\r\n\r\n    /*\r\n      Função Votar\r\n      Essa função será bem básica, sem muitas validações.\r\n    */\r\n    function votar(uint _candidato) public {\r\n      //Verifica se o eleitor já votou.\r\n      require(!eleitores[msg.sender]);\r\n      //Verifica se o candidato informado é valido\r\n      require(_candidato > 0 && _candidato <= contCandidatos);\r\n      /* Altera para verdadeiro o mapeamento de eleitor para o\r\n      edereço que solicitou a função */\r\n      eleitores[msg.sender] = true;\r\n      //Atualiza a contagem de voto do candidato\r\n      candidatos[_candidato].contadorVoto ++;\r\n      //Emite um evento que pode ser monitorado na aplicação front-end\r\n      emit eventoVoto(_candidato);\r\n    }\r\n\r\n    /*\r\n        Metodo construtor que é executado apenas uma vez, que é quando o contrato é submetido ao blockchain\r\n    */\r\n    constructor () public {\r\n      /*\r\n        Adicionando candidatos no momento em que o contrato é submetido a rede.\r\n      */\r\n        addCandidato(\"Candidato 1\", 20);\r\n        addCandidato(\"Candidato 2\", 21);\r\n        addCandidato(\"Candidato 3\", 22);\r\n        addCandidato(\"Candidato 4\", 23);\r\n        addCandidato(\"Candidato 5\", 24);\r\n    }\r\n}\r\n",
  "sourcePath": "W:\\Ethereum\\private_net_04\\contracts\\Eleicao\\contracts\\Eleicao.sol",
  "compiler": {
    "name": "solc",
    "version": "0.4.24+commit.e67f0147.Emscripten.clang"
  },
  "schemaVersion": "2.0.1",
  "updatedAt": "2018-11-27T15:19:01.369Z"
}